:0C000000A1C1B7C3B7C3FCCFFBCFFACF40
:10000C0025C3F8CFF7CF85C3F5CF62C3F3CFF2CFBB
:10001C00F1CFF0CFEFCFEECFEDCF53797374656D99
:10002C0020737461727465640A0D52656164792081
:10003C00666F7220776F726B0A0D00000A0D4572A5
:10004C00726F723A20496E76616C696420646576D1
:10005C00696365206E756D6265723A2000000A0D49
:10006C004572726F723A20496E76616C69642064D5
:10007C0065766963652076616C75653A20000A0DBA
:10008C004572726F723A20446576696365207661B9
:10009C006C7565206973206F7574206F66207261B2
:1000AC006E67653A20000A0D4572726F723A2049EC
:1000BC006E76616C696420636F6D6D616E64206631
:1000CC006F722074686520646576696365206D6F56
:1000DC00746F723A20000A0D4572726F723A2049A1
:1000EC006E76616C696420636F6D6D616E64206601
:1000FC006F7220746865206465766963652073652A
:10010C0072766F3A20007465737400000100007FF2
:10011C00204E0E2B3947565D64072B47646464648C
:10012C0007325D64646464073239646464641D1D61
:10013C001D1D394F6424242424475D642424242465
:10014C00474F64000000007F66696C6C2062756626
:10015C000A0D006275663A0A0D0025630030782599
:10016C007800616363656C0A0D006272616B650AED
:10017C000D00736572766F5F73746565723D2564EF
:10018C000A0D00726576657273650A0D00636D6405
:10019C003A2073746F700A0D00636D643A20666FB9
:1001AC0072776172640A0D00636D643A20666F7237
:1001BC00776172642D72696768740A0D00636D64EF
:1001CC003A20666F72776172642D6C6566740A0DE5
:1001DC0000636D643A206261636B776172640A0D2F
:1001EC0000636D643A206261636B776172642D7297
:1001FC00696768740A0D00636D643A206261636B11
:10020C00776172642D6C6566740A0D000A0D434F9C
:10021C004D4D414E440A0D000A0D4D4F544F520A9C
:10022C000D000A0D414343454C0A0D000A0D425284
:10023C00414B450A0D000A0D524556455253450A8D
:10024C000D000A0D504F5745520A0D000A0D56610C
:10025C006C75653A2025640A0D000A0D53455256FB
:10026C004F0A0D000A0D414E474C450A0D000A0D70
:10027C00544553540A0D00310A0D00300A0D00008C
:10028C004D4D435F496E69743A206D6D6320657204
:10029C00726F720A0D006D6D635F77726974655FC2
:1002AC00636F6D6D616E643A20627265616B20667E
:1002BC00726F6D207768696C650A0D006D6D635FF8
:1002CC0077726974655F736563746F720A0D006D84
:1002DC006D635F726561645F626C6F636B0A0D00C6
:1002EC006D6D635F726561645F736563746F720AD1
:1002FC000D006D6D635F726561645F6369640A0D07
:10030C00006D6D635F726561645F6373640A0D00F9
:10031C0001002D4E414E00000200C4011A010200E2
:10032C00C7011C013100CB011E0104000900500162
:10033C000100FD011C030000F894EE27ECBBF1E07A
:10034C00FBBFEBBFE5BFF8E1F1BDE1BD8DE0A2E085
:10035C00BB27ED938A95E9F780E094E0A0E6ED9356
:10036C000197E9F7E4E2F3E085919591009761F04C
:10037C00A591B59105901590BF01F00105900D92D6
:10038C000197E1F7FB01F0CFEFE5EDBFE4E0EEBF45
:10039C00C0E6D1E010C2E2E0E3BFE4EFE2BFE0E090
:1003AC00EFBDE2E0EEBDD9D3E0E0E7BDE6BDE8EDA0
:1003BC00F5E0FBBDEABDE0E0E9BDE8BDE2BDE9E684
:1003CC00E5BDE0E0E4BDE3BD0895E0E0E8BBEFE0AF
:1003DC00E7BBE0E0E5BBEFE1E4BBE0E0E2BBE1BBA7
:1003EC00EBB9E8E9EAB9E6E8E0BDE0E0E0BDECE055
:1003FC00E9B9EBB7E06CEBBFE5E0E5BFE0ECEABFD9
:10040C00E1E1E9BFE0E8E8B9E0E0E0BF7894089505
:10041C001A937720F1F3E42DA4D3E05AFE4F108108
:10042C004394E4E6E41509F44424F8947A9478941B
:10043C00E12F19910895AFD401E010E0EA81FB811E
:10044C003097A9F0E17029F0EC81FD81D80149D4F5
:10045C008F01EC81FD81AC81BD8143D4EC83FD83A4
:10046C00EA81FB81F595E795EA83FB83E7CFF801F9
:10047C0099D426960895EEE6F1E075D3A89AA9983A
:10048C00A091C401AE3F21F074D3EF5F75D3F8CFC8
:10049C000895E6E7F1E067D36CD3E03021F069D33F
:1004AC00E1506AD3F9CFA898A9980895CC246CD3BD
:1004BC00EEEFCE2E69D3EFE7CE2E66D30895EFE89C
:1004CC00F1E051D3E1E0EA1529F4A89A62D3A99896
:1004DC00AA2405C0A99A5DD3A898E1E0AE2E089590
:1004EC0056D440E050E05AD331979F013323FAF0B1
:1004FC008FDF37D3F0978F010A30E0E01E0714F03E
:10050C0011230AF007C0EAE6F0E02DD34AD3F80134
:10051C004DD30AC0EAE0F0E04FD33A932A938BDF35
:10052C00D801DFD34E0F5F1F21503040DFCF4F3F3C
:10053C00E0E05E074CF0EAE8F0E015D332D3FA01C4
:10054C0035D3EFEFFFEF01C0FA0128D428960895B8
:10055C005FDFE33609F079C0E8E1F2E004D358DF5D
:10056C006E2EE62DFED2ED36A0E0FA07B1F5E4E2F0
:10057C00F2E0F9D299244CDF8E2EE82D20D329F409
:10058C00EEE2F2E0F0D277DF27C0E236A0E0FA0725
:10059C0029F4E8E3F2E0E7D27CDF1EC0E237A0E00A
:1005AC00FA0729F4E2E4F2E0DED289DF15C0E03785
:1005BC00A0E0FA0759F4EEE4F2E0D5D205D329F025
:1005CC000FD313D317D3E081E3BD06C0E2EBF0E009
:1005DC00CAD2E7D2E82D2FC038C0E337A0E0FA0723
:1005EC0009F5E6E6F2E0BFD2E1E09E2E11DFBE2E69
:1005FC00EB2DE5D251F4E0E7F2E0B5D2E5D221F0F3
:10060C00EFD2F3D2F7D2C0800CC0E437A0E0FA07E7
:10061C0029F4EAE7F2E0A7D249DF03C0E2EEF0E00A
:10062C0003C013C0E8E4F0E0FA93EA9380E064D2EC
:10063C002296B7D2EB2DFF276627772798D384E035
:10064C005BD22696EFEFFFEF089508950A92AA93D6
:10065C00BA93EA93FA93EFB7EA937FD2E091C6018B
:10066C0080D2E85EFE4F049008BAA091C601A1307A
:10067C0071F4E091C701F091C801FBBDEABDE0E265
:10068C00FEE4E093C701F093C801E0E017C0AC2D85
:10069C00BAD2FD0114D3E452FC4FFBBDEABDEAB55E
:1006AC00FBB5A091C701B091C801AE1BBF0BA093C5
:1006BC00C701B093C801E091C601EF5FE093C6019A
:1006CC00E991EFBFF991E991B991A9910990189528
:1006DC00EA93FA93EFB7EA935ED31BB10CB1E12F17
:1006EC00EC7189F4E52D3DD2E05AFE4F0083539412
:1006FC00E4E6E51509F455247394E4E6E71519F4DA
:10070C007724689420F851D3E991EFBFF991E991DE
:10071C001895AA93EA93EFB7EA93E4EFE2BFA0919E
:10072C00C901A43120F4E5B3A8E0EA27E5BBA09108
:10073C00C901A43170F0A091CA01A83220F0E0E008
:10074C00E093C90103C0E091CA01EF5FE093CA01D5
:10075C0005C0E091C901EF5FE093C901E991EFBFDA
:10076C00E991A991189518950A921A92FA926A939E
:10077C007A938A939A93AA93BA93EA93FA93EFB7DC
:10078C00EA93839B03C0E3E8F2E002C0E7E8F2E0FF
:10079C00FA93EA9380E0B0D12296E991EFBFF991F8
:1007AC00E991B991A9919991899179916991F9906E
:1007BC00199009901895E29708DEE6E2F0E0D3D1A3
:1007CC00EADDC6DEFECFFFCF5D9BFECFE881ECB944
:1007DC0021960895E0D2AC81BD81BFD23097D1F083
:1007EC00AA81BB81BAD28F01309749F00230E0E088
:1007FC001E0778F0F80131978F01ED93FC93AC81D3
:10080C00BD81ED91FD913196FE93EE933197AE81C2
:10081C00A08303C0EE81EA93D7DFC4D22796089554
:10082C002B97B5D210E0EF89F88D3196EF8BF88FBE
:10083C003197E4912E2FE03009F45BC1E12F91D177
:10084C00309731F4253211F411E001C0DED150C1E2
:10085C00E130A0E0FA07A1F4253211F4D6D147C15A
:10086C0012E040E000E02D3211F401E041C12B32E6
:10087C0011F44BE23DC1203211F440E239C104C005
:10088C00E230A0E0FA0739F450E013E0203311F421
:10089C0000682EC104C0E330A0E0FA07F9F420335D
:1008AC0010F02A3308F014C0A52FADD1EAE0F0E027
:1008BC00EA02F0015E2F652F7727A22FA4D1E0E387
:1008CC00F0E05AD2EA1BFB0BDB01EA0F5E2F10C1E2
:1008DC002C3619F4026015E00BC105C0E530A0E020
:1008EC00FA0709F005C199D1E336A0E0FA0739F40B
:1008FC0096D198D194D1A481AA9398D1F8C0E3371A
:10090C00A0E0FA0729F499D19AD112D11E2F09C06F
:10091C00E037A0E0FA0751F490D191D113D11E2FFA
:10092C0008600F77E0E0E88B30E063C0E436A0E0CD
:10093C00FA0721F0E936A0E0FA0711F4046004C0CC
:10094C00E537A0E0FA0791F4EAE0E88B01FF07C075
:10095C00E0E0FAEC6AE97BE37AD11AE023C0E0E14B
:10096C00F7E260E070E073D115E01CC0E835A0E060
:10097C00FA0711F4086005C0E837A0E0FA0709F09F
:10098C00B6C0E0E1E88B01FF07C0E0E0F0E060E01A
:10099C0070E15DD118E006C0E0E0F0E160E070E0ED
:1009AC0056D114E001FF04C048D156D1DAD10CC0A5
:1009BC0002FF05C042D150D1D0D186D105C03DD166
:1009CC004BD1CBD166277727EC87FD876E877F8746
:1009DC0002FF0FC0AF85AA233AF4EC85FD856E8526
:1009EC007F8565D13DD14DE2403011F01F5F01C0D4
:1009FC000B7F00FD10C0151770F407FF08C002FF35
:100A0C0004C00B7F242F115001C020E301C020E251
:100A1C00FCD05150F0CF312FE889E030C1F43030A8
:100A2C00A9F003FF07C0BAD03196EE83FF8331974C
:100A3C00E49105C0AE81BF81ED91AE83BF83EA9393
:100A4C00F5D0503009F051503150E9CF47C00DD19D
:100A5C004DD12E2F2A3050F003FF03C0DED0F79675
:100A6C0003C0DBD0E95AFF4F2E2F03C0D6D0F0962F
:100A7C002E2F04FD1EC0213348F400D1A130E0E03C
:100A8C00BE07E0E08E07E0E09E0709F409C05317AB
:100A9C0010F000FF01C011C020E207FF0AC020E3E4
:100AAC00006102FF06C00B7F4A93C0D0503009F0A2
:100ABC005150ABD0503009F051503150D6D03BD1C1
:100ACC00CFD0E8894ED0DAD0FFD010D1C0D0E88595
:100ADC00F9856A857B8557D109F0B9CF00FF07C02E
:100AEC00503029F05150E0E2EA93A0D0F9CF10E059
:100AFC009ACE54D169960895FF92F82E22974BD135
:100B0C00DE01CDD08D01E0E0EA83EB83DE011496AB
:100B1C00C6D023D151D01A930A93FE0136964CD0ED
:100B2C00E0E0F0E049D07CDE3DD12496FF900895C2
:100B3C00A991B991EE27FF276D91662311F031969B
:100B4C00FBCF0895AA27BB27E991F99105900020C6
:100B5C0011F01196FBCFFD010895E0E0EDBDECBD69
:100B6C000895F0E00895FA93EA9380E0C5DF2296A9
:100B7C000895E091C4010895E093C401FADFE3BD48
:100B8C008BE18A95F1F70895E4EFF1E0FA93EA939B
:100B9C007AC088EC90E00197F1F70895EE81FF811F
:100BAC000895EAE8F1E0FA93EA9308958DD0DFD046
:100BBC0084E0A2DF26960895FA93EA930895D1DF94
:100BCC00E136A0E0FA070895E3E0F0E0F5DF88DC19
:100BDC00DE2EAD2DEFEFB0E0FFEFEA17FB07089527
:100BEC00E92DBFDFEC53FE4F0895D082E8E5F2E02B
:100BFC00E3DFF6CFE081FF2766277727B8D084E0C4
:100C0C007BDF2696EDCFB0E008952A93EC89FD8921
:100C1C00D3DFFE017496D0DFDDCDE22FA2CFED89BC
:100C2C00FE8908953497ED8BFE8B0895EC89FD8930
:100C3C00C3DFFE017496C0DFCDCDF1DFF3CFAD89FC
:100C4C00BE8914968AD0EE83FF83A8DFB5CFE887E0
:100C5C00F9876A877B870895AD89BE8914960895B4
:100C6C00EC87FD876E877F870895E885F9856A850F
:100C7C007B85AC85BD858E859F850895A885B985B6
:100C8C008A859B850895E991F991309639F080ED2C
:100C9C0097E00197F1F7A8953197C9F708950024CB
:100CAC00AF0DB01D0895F195E195F0400895F095C4
:100CBC0060957095E195FF4F6F4F7F4F0895EE0F44
:100CCC00FF1FEE0FFF1F08956F2F660F660B762F19
:100CDC000895FA9FF02DEB9FF00DEA9FE02DF10D9A
:100CEC0008952DD0F6DF0EF4DEDF08953F934F9379
:100CFC005F93002411244427552730E2AA0FBB1F11
:100D0C00881F991F001C111C441F551F0E1A1F0A07
:100D1C00460B570B28F40E0E1F1E461F571F01C003
:100D2C00A1603A9559F7FD01BC01D001CA015F9150
:100D3C004F913F910895DADFFD01BC010895E894CD
:100D4C00F7FF02C0B0DF6894B7FF06C0A095B0955E
:100D5C00119600F8039400FA0895ED91FC91119707
:100D6C000895ED91FD916D917C91139708957A936F
:100D7C006A93FA93EA9308951B2EBF2FF12D1A2E26
:100D8C00AE2FE12D089530976040704008955A932E
:100D9C004A933A932A931A930A9308955D814C814E
:100DAC003B812A811981088108950991199108952F
:00000001FF
